:020000040800F2
:100000000080002053000008510000085100000843
:1000100051000008510000085100000800000000D5
:100020000000000000000000000000005100000877
:1000300051000008000000005100000841000008C5
:10004000024A136801331360704700BF00000020AC
:10005000FEE708B5164A174B9A420CD2581E801A72
:1000600020F003000430144B184453F8041B42F8EA
:10007000041B8342F9D1114A114B9A420BD2134609
:10008000104AD21A22F0030204321A44002143F823
:10009000041B9342FBD14FF0E02343F67F625A6189
:1000A00000229A6107221A6100F018F8FEE700BFEB
:1000B0000000002000000020800100080000002057
:1000C0000400002003000020034B19681A4613683F
:1000D0005B1A8342FBD370470000002008B5274A13
:1000E000D36C43F00703D3644FF090431A6822F0B7
:1000F00003021A601A6842F001021A601A6822F4B8
:1001000040621A601A6842F480621A60D3F80024D0
:1001100022F44032C3F80024D3F8002442F48032A1
:10012000C3F80024D3F8002822F04062C3F8002866
:10013000D3F8002842F08062C3F800281C464FF430
:1001400000564FF4FA75C4F818682123A3614FF4E0
:100150008073C4F818342846FFF7B6FF4FF00053F9
:10016000C4F818384FF40413A3614FF08073C4F837
:1001700018342846FFF7A8FFE5E700BF001002404B
:04000005080000539C
:00000001FF
